:020000040800F2
:1000000000000120C50900088509000887090008CB
:10001000890900088B0900088D090008000000000C
:100020000000000000000000000000008F09000830
:1000300091090008000000009309000895090008D4
:10004000150A0008150A0008150A0008150A000814
:10005000150A0008150A0008150A0008150A000804
:10006000150A0008150A0008150A0008150A0008F4
:10007000150A0008150A0008150A0008150A0008E4
:10008000150A0008150A0008150A000800000000FB
:10009000000000000000000000000000150A000839
:1000A000150A0008150A0008150A0008150A0008B4
:1000B000150A0008150A0008150A0008150A0008A4
:1000C000150A0008150A0008150A0008150A000894
:1000D000150A0008150A0008150A000800000000AB
:1000E000150A0008150A0008150A0008000000009B
:1000F000000000000000000000000000150A0008D9
:100100000000000099090008150A0008150A0008F7
:1001100000000000000000000000000000000000DF
:10012000150A0008150A0008150A0008A5090008A4
:10013000150A000800000000000000000000000098
:10014000000000000000000000000000150A000888
:10015000150A0008150A0008150A0008150A000803
:10016000150A0008150A0008000000000000000041
:10017000000000000000000000000000000000007F
:1001800000000000150A0008000000000000000048
:04019000150A000844
:1001940010B5054C237833B9044B13B10448AFF3BD
:1001A40000800123237010BD100000200000000017
:1001B4003C45000808B5034B1BB103490348AFF3A2
:1001C400008008BD00000000140000203C45000829
:1001D40053B94AB9002908BF00281CBF4FF0FF31AA
:1001E4004FF0FF3000F06AB9ADF1080C6DE904CEB0
:1001F40000F006F8DDF804E0DDE9022304B07047FE
:100204002DE9F047089D0C46002B4ED194468C45B1
:100214008646B2FA82F262D94AB1C2F12003914011
:1002240020FA03F30CFA02FC194300FA02FE4FEA27
:100234001C471FFA8CF6B1FBF7F44FEA1E4307FB89
:10024400141143EA014304FB06F199420AD91CEB59
:10025400030304F1FF3080F01281994240F20F81D0
:10026400023C6344591A1FFA8EF3B1FBF7F007FB03
:10027400101143EA014300FB06F69E420AD91CEB27
:10028400030300F1FF3180F0FC809E4240F2F980CC
:10029400634402389B1B40EA044000211DB1D34053
:1002A4000022C5E90032BDE8F0878B4205D90DB1C3
:1002B400C5E9000100210846F5E7B3FA83F10029F6
:1002C40046D1A34202D39042C0F0F080861A64EB78
:1002D40003030120002DE6D0C5E90063E3E7002A0B
:1002E40040F09080A1EB0C044FEA1C481FFA8CF7F5
:1002F4000121B4FBF8F64FEA1E4308FB164443EA17
:10030400044307FB06F0984208D91CEB030306F1EB
:10031400FF3402D2984200F2CD8026461C1A1FFAFE
:100324008EF3B4FBF8F008FB104443EA044300FBEB
:1003340007F79F4208D91CEB030300F1FF3402D2F4
:100344009F4200F2B0802046DB1B40EA0640A5E74E
:10035400C1F120068B4022FA06F71F4320FA06FC5F
:1003640004FA01F343EA0C03F44000FA01F8380CF0
:100374004FEA1349B4FBF0FE1FFA87FC00FB1E444E
:1003840049EA04440EFB0CF9A14502FA01F20AD928
:100394003C190EF1FF3A80F08480A14540F281803F
:1003A400AEF1020E3C44A4EB09041FFA83F9B4FB3A
:1003B400F0F300FB134449EA044403FB0CFCA4459A
:1003C40007D93C1903F1FF3067D2A44565D9023B34
:1003D4003C4443EA0E40A0FB0293A4EB0C049C4271
:1003E400CE469C4651D34ED055B1B8EB0E0364EBC8
:1003F4000C0404FA06F6CB401E43CC40C5E9006465
:10040400002150E7C2F1200320FA03F10CFA02FCA8
:1004140024FA03F394400C434FEA1C4800FA02FE0A
:100424001FFA8CF7B3FBF8F008FB1031230C43EAF6
:10043400014300FB07F1994208D91CEB030300F1C7
:10044400FF362CD299422AD9023863445B1AA4B2EB
:10045400B3FBF8F108FB113344EA034401FB07F34F
:10046400A34208D91CEB040401F1FF3613D2A342C2
:1004740011D902396444E41A41EA004139E70446D7
:10048400F0E6084606E7C845AED2B9EB020E63EBC8
:10049400070C0138A8E73146EDE7034699E73046F3
:1004A400D4E7D6467FE7634402384DE70646234641
:1004B40008460FE7023E634430E700BF704700BFC1
:1004C40008B50421034800F08BFF431E58425841ED
:1004D40008BD00BF0004024002282DE9F0410C468B
:1004E40018D80D4BDFF834801F5C55000026F3B29A
:1004F400AB4206F1010605DB04EB4400BDE8F04124
:1005040000F0D8BA4046394600F075FF204600F0A6
:10051400D1FAECE7BDE8F08161450008000802402B
:100524002DE9F0430322ADF6240D07460E460120C3
:100534001E21FFF7D1FF00F057FD00230393022390
:100544000793059304230DEB030103A8069300F01E
:1005540031FE054688B300F059FD01200DF6240D47
:10056400BDE8F08302AB4FF4006208A9384603F0FB
:100574001DFE04460028EED1029B002BEBD00DF1AA
:100584002009029BA3420CD803221E210120984477
:100594001D44FFF7A1FFB542E4D300F037FD00206E
:1005A400DCE759F8042B002308EB0401022000F0D7
:1005B4005FFD0028CFD10434E3E7DFF80480EAE7E5
:1005C4000080000800B595B01422002109A803F0AA
:1005D40087FF1422002103A803F082FF00221E4B90
:1005E4000192196C41F0805119641B6C1B4903F092
:1005F40080530193019B02920B6823F4404343F41C
:1006040000430B600B6803F440430293029B0223F4
:100614001021CDE90E320120C022CDE90B01CDE934
:100624001123089308A804231091139300F0ECFEFF
:10063400014608B172B6FEE70F23CDE90330CDE9D8
:100644000500079003A801F0BBF808B172B6FEE7F5
:1006540015B05DF804FB00BF003802400070004094
:1006640070B5ADF5025D0DF5845600246A4D00F0B9
:10067400F5F9FFF7A7FF14220021A6F1380003F0D3
:100684002FFF02942B6B654843F004032B632B6B01
:1006940003F004030293029B03942B6B43F00203C5
:1006A4002B632B6B03F002030393039B04942B6BC8
:1006B40043F001032B632B6B03F001030493049BAE
:1006C40005942B6B43F008032B632B6B03F0080397
:1006D400059322460F21059B00F088FE0DF58251FB
:1006E4000F2201234D48083146E90E2346E90C4404
:1006F40000F0B0FD0DF582510423494846F8304C12
:10070400083146E90E3400F0A5FD0DF582514FF491
:100714000043444846F8304C083146E90E3400F0B2
:1007240099FD01942B6B43F480032B632B6B3E4D9B
:1007340003F480030193224621463B20019B00F0F1
:10074400DFF93B2000F00EFA384BAC612846C5E9CE
:100754000034C5E90244C5E9044401F037FC20B97A
:100764004FF40061284601F05FFC02F0A3F9012276
:100774002A48082100F03AFEFFF7A2FE024648B9D3
:100784002B4C26486568082100F030FE636883F32B
:100794000888A84721480122082100F027FE0DF50A
:1007A400825024490122083003F0D6FB40BB224981
:1007B400012206A803F0FAFB10BB099CB4F5603FC4
:1007C4001BD8052296210220FFF786FE214606A8A3
:1007D400FFF7A6FE044680B906A803F0EEFD052245
:1007E40096210220FFF778FE4FF47A7000F062F948
:1007F4000A482246082100F0F9FD06A803F0DDFDB1
:10080400052296210020FFF767FE044800220821F4
:1008140000F0ECFDFEE700BF003802400008024093
:1008240000040240000002408C000020002C014023
:1008340000800008340100205445000872B6FEE729
:1008440082B00C4B002100915A6C42F480425A64ED
:100854005A6C02F480420092009A01911A6C42F0A0
:1008640080521A641B6C03F080530193019B02B005
:10087400704700BF003802402DE9F043064689B0B6
:100884001422002103A803F02BFE3268374B9A424E
:1008940068D103F58633002500955A6C344842F438
:1008A40000625A645A6C02F400620092009A019544
:1008B4001A6B42F004021A631A6B02F004020192EA
:1008C400019A02951A6B42F008021A631B6B03F03B
:1008D40008030C24029303270DEB0401029B4FF041
:1008E40002094FF4F853CDE90339CDE906744FF00A
:1008F400040800F0AFFC0DEB04011E480794CDE999
:1009040005571D4CCDE9038900F0A4FC1B4AA762DE
:100914004FF00063C4E900234FF480614FF4805327
:100924004FF48040C4E904132023C4E90603C4E956
:100934000255C4E908584FF400134FF4000520464B
:10094400C4E90B5300F046F908B1FFF777FF002222
:1009540031203464F4631146A66300F0D1F83120E9
:1009640000F000F909B0BDE8F08300BF002C01409D
:1009740000080240000C02402C0000205864024091
:10098400FEE7FEE7FEE7FEE7FEE7704770477047C5
:1009940000F07EB8014801F037BC00BF8C00002095
:1009A400014800F0E1B900BF2C000020034AD2F84E
:1009B400883043F47003C2F88830704700ED00E0DB
:1009C400DFF834D0FFF7F2FF0C480D490D4A00233D
:1009D40002E0D458C4500433C4188C42F9D30A4AF0
:1009E4000A4C002301E013600432A242FBD303F05B
:1009F4007FFDFFF735FE7047000001200000002056
:100A040010000020EC4900081000002078030020AA
:100A1400FEE7000038B50E4B1A784FF47A73B3FB37
:100A2400F2F30C4A05461068B0FBF3F000F0A8F8A6
:100A3400044658B90F2D09D8024629464FF0FF3015
:100A440000F05EF8044B20461D6038BD0120FCE731
:100A540004000020000000200800002008B50B4B13
:100A64001A6842F400721A601A6842F480621A60CA
:100A74001A6842F480721A60032000F02FF80F20E5
:100A8400FFF7C8FFFFF7DCFE002008BD003C024072
:100A9400034A044B11681B780B441360704700BF72
:100AA4001001002004000020014B1868704700BFAB
:100AB4001001002038B50446FFF7F6FF631C1CBF85
:100AC400054B1B78054618BFE418FFF7EDFF431BE1
:100AD400A342FAD338BD00BF040000200749CA6806
:100AE40022F4E0620302120403F4E063120C1343E1
:100AF40043F0BF6343F40033CB60704700ED00E084
:100B0400164B30B5DC68C4F30224C4F10703251D79
:100B1400042B28BF0423062D4FF0FF358CBF033C64
:100B2400002405FA03F321EA0303A54022EA05029F
:100B3400A340002843EA0203ACBF00F16040084A26
:100B44004FEA0313B8BF00F00F00DBB2AABF00F5F1
:100B54006140135480F8003330BD00BF00ED00E065
:100B640014ED00E0002807DB044A4109012300F0EA
:100B74001F00834042F82130704700BF00E100E0CD
:100B84000138B0F1807F0BD24FF0E023054A586161
:100B9400F02182F823100020072298611A6170471F
:100BA4000120704700ED00E0036810B5084C0246D0
:100BB400D9B210391820B1FBF0F0205CD06523F4D1
:100BC4007F7020F003005F2988BF0430906510BD5A
:100BD4007445000870B50446FFF766FF0546002C0F
:100BE40060D0022384F835302268002384F834303E
:100BF400136823F00103136022681368D8072ED406
:100C040013683248A1691840D4E901352B43E568DB
:100C14002B4325692B4365692B43E5690B432B4320
:100C2400256A2B430343606A042802BFD4E90B56A8
:100C340035432B4313605369042823F0070343EA25
:100C4400000335D1A06AE56A03438DB391B9012845
:100C540020D030F002012BD1E90129D51DE0FFF7A6
:100C640023FF401B0528C7D920230320636584F88C
:100C7400350070BDB1F5005F16D1032818D801A165
:100C840051F820F09F0C00085D0C00089F0C000830
:100C9400990C0008B5F1C07F0AD140236365012394
:100CA40084F835300120E4E70228F6D90328D3D0AC
:100CB40053612046FFF778FFE26D3F239340836042
:100CC40000200123606584F83530D2E73F8010F0BE
:100CD40070B590F83440866D012C30D0012480F832
:100CE400344090F83540012C4FF0000425D1022502
:100CF40080F8355044650468256825F4802525600E
:100D040063608368402B0EBFA260A160E260C26D85
:100D140008BFE1603F239340B360236843F01603A8
:100D24002360036C1BB1236843F00803236023682A
:100D340043F001032360002070BD80F8344002209A
:100D4400FAE790F83530022B03D080234365012065
:100D540070470268052380F83530136823F00103D7
:100D64001360002070470000F7B5002301935C4B2B
:100D7400856D1F68C36D2E6808229A40324204466E
:100D84000CD001680868400708D5086820F0040002
:100D94000860AA60626D42F00102626501229A4015
:100DA400324208D021684969090641BFAA60626DD0
:100DB40042F00202626504229A40324208D021685D
:100DC4000968880741BFAA60626D42F00402626547
:100DD40010229A40324210D02368196809070CD5B2
:100DE400AA601A68500337D51B68190301D4236C11
:100DF40000E0A36C0BB120469847E16D20228A40A5
:100E040032423AD023681868C60636D5AA6094F8E8
:100E14003520052A1A6827D122F016021A605A6969
:100E240022F080025A61226C0AB9A26C1AB11A68C3
:100E340022F008021A603F238B40AB60012384F840
:100E44003530002384F83430236D002B45D0204600
:100E540003B0BDE8F04018471A68D2055EBF1A68AF
:100E640022F008021A60C2E7500327D51B68190351
:100E740031D4636C0BB120469847636D6BB3636DDB
:100E8400DA0719D522684FF41653B7FBF3F7052395
:100E940084F83530136823F001031360019B013398
:100EA400BB42019302D81368DB07F7D4012384F80B
:100EB4003530002384F83430E36CC6E71A6812F442
:100EC400807208D1196821F010011960012384F897
:100ED400353084F83420E36BCCE703B0F0BD00BFB9
:100EE40000000020406D7047094910B50C6924F4D6
:100EF40040740C610C6944F440740C610C6944F056
:100F040001040C610260BFF36F8F436010BD00BF2A
:100F1400003C0240074B1A6922F440721A611A69B4
:100F240042F400721A611A6942F001021A61016006
:100F3400704700BF003C0240074B1A6922F440721C
:100F44001A611A6942F480721A611A6942F0010244
:100F54001A610180704700BF003C0240204BDA68F0
:100F6400D00606D51F49CA6942F01002CA61102290
:100F7400DA60DA68910606D51A49CA6942F00802AD
:100F8400CA612022DA60164BDA68520606D5154982
:100F9400CA6942F00402CA614022DA60DA681006C3
:100FA40006D51049CA6942F00202CA618022DA6099
:100FB4000B4BDA68D10507D50A49CA6942F0010228
:100FC400CA614FF48072DA60DA68920706D505497F
:100FD400CA6942F02002CA610222DA60704700BF87
:100FE400003C024014010020064B1A69002ABFBFCE
:100FF400054A5A6002F188325A60BABF1869C00FB4
:1010040000207047003C024023016745034A1369EE
:1010140043F0004313610020704700BF003C0240CE
:10102400114B70B500220446DA61FFF73DFD0F4D08
:101034000646EB68DA030CD4EB68DB0744BF0123F4
:10104400EB60E86810F4F97007D0FFF787FF012020
:1010540003E0611CEDD00CB9032070BDFFF724FD43
:10106400801BA042E5D9F7E714010020003C0240B0
:101074002DE9F0411F4E9846337E012B07460D465D
:10108400144635D001234CF250303376FFF7C8FFB5
:10109400B0B9CFB9184B1A6922F440721A611A69AF
:1010A4001A611A69E4B242F001021A612C704CF21E
:1010B4005030FFF7B5FF104A136923F001031361A1
:1010C40000233376BDE8F081012F04D1A1B2284674
:1010D400FFF732FFEBE7022F04D121462846FFF742
:1010E40019FFE4E7224643462846FFF7FDFEDEE704
:1010F4000220E7E714010020003C0240074B1A6974
:1011040022F440721A611A6942F004021A611A69DF
:1011140042EA002242F480321A617047003C0240E5
:101124000D4B1A6922F440721A611A69022994BF9C
:1011340009024FF440710A431A611A6922F0F80255
:101144001A611A6942EAC00040F0020018611A6983
:1011540042F480321A617047003C0240144B1A6812
:1011640091050FD51A6822F400721A601A6842F4C5
:1011740000621A601A6822F400621A601A6842F463
:1011840000721A600A4B1A6852050FD51A6822F4C5
:1011940080621A601A6842F480521A601A6822F453
:1011A40080521A601A6842F480621A60704700BF65
:1011B400003C02402DE9F843DFF8948098F8183099
:1011C400012B05460F463FD001234CF2503088F8DE
:1011D4001830FFF725FF0446A0B94FF0FF333B60FA
:1011E4002B68012B14D1287CFFF788FF4CF2503078
:1011F400FFF716FF154A136923F00403044613612D
:10120400FFF7ACFF002388F818302046BDE8F883C8
:10121400AE68DFF83890D5E902231344B342EFD91E
:10122400297C3046FFF77CFF4CF25030FFF7F8FE84
:10123400D9F8103023F0FA03C9F8103010B13E6029
:101244000446DDE70136E6E70224DEE7003C02401F
:10125400140100202DE9F74FDFF880915D4A002347
:101264000D6801249C4004EA0506AC4340F0A380C9
:101274004D68032705F003044FEA430807FA08FC06
:10128400671E012F6FEA0C0C34D8876807EA0C0E2E
:10129400CF6807FA08F747EA0E078760476827EA26
:1012A400060EC5F300179F4047EA0E074760C7685C
:1012B40007EA0C0E8F6807FA08F747EA0E07022CB4
:1012C400C76019D14FEAD30A00EB8A0A03F0070B6F
:1012D400DAF820704FEA8B0B4FF00F0E0EFA0BFE6C
:1012E40027EA0E0E0F6907FA0BF747EA0E07CAF84A
:1012F400207001E0032CDAD1076804FA08F407EA45
:101304000C073C4315F4403F046054D0002401947E
:10131400D9F8444044F48044C9F84440D9F84440DE
:1013240023F0030707F1804704F4804407F59C3752
:10133400019403F0030C019CD7F808E04FEA8C0CED
:101344000F2404FA0CF42EEA040E234CA04239D0E4
:1013540004F58064A04237D004F58064A04235D0FF
:1013640004F58064A04233D004F58064A04214BF25
:101374000724042404FA0CF444EA0E04BC609468C0
:10138400F74315F4801F0CBF3C4034439460D46889
:1013940015F4001F0CBF3C403443D460546815F46A
:1013A400003F0CBF3C40344354601468ED0354BF09
:1013B4003C40344314600133102B7FF451AF03B02D
:1013C400BDE8F08F0024D5E70124D3E70224D1E758
:1013D4000324CFE7003C01400000024000380240F3
:1013E4000369194214BF0120002070470AB18161CA
:1013F40070470904FBE7436901EA030221EA030198
:1014040041EA0241816170472DE9F341044640B34A
:101414000368DE0710D423689D075BD4236819078B
:1014240000F19D8023685A0700F1BD80A369002B59
:1014340040F0248100202CE08D4B9A6802F00C02CD
:10144400042A07D09A6802F00C02082A0BD15B68C0
:10145400590208D5864B1B689A03DCD56368002BB8
:10146400D9D1012015E06368814DB3F5803F13D1D4
:101474002B6843F480332B60FFF716FB7C4E054644
:1014840033689B03C7D4FFF70FFB401B6428F7D9CD
:10149400032002B0BDE8F081B3F5A02F04D12B687E
:1014A40043F480232B60E3E72A6822F480322A6025
:1014B4002A6822F480222A60002BDDD1FFF7F4FA97
:1014C40006462B689F03A6D5FFF7EEFA801B642817
:1014D400F7D9DDE7664B9A6812F00C0F07D09A68CB
:1014E40002F00C02082A11D15B685D020ED4604A36
:1014F4001368990702D5E368012BB2D113682169F7
:1015040023F0F80343EAC103136087E7E268594B09
:10151400B2B101221A60FFF7C7FA554D06462B688F
:101524009B0707D52B68226923F0F80343EAC2031B
:101534002B6073E7FFF7B8FA801B0228EFD9A7E7FF
:101544001A60FFF7B1FA4A4E054633689F077FF5E4
:1015540065AFFFF7A9FA401B0228F6D998E762693C
:10156400444B82B10122C3F8802EFFF79DFA404E0E
:101574000546736F9B073FF555AFFFF795FA401B80
:101584000228F6D984E7C3F8802EFFF78DFA384E87
:101594000546736F9F077FF545AFFFF785FA401B3C
:1015A4000228F6D974E7324B1A6C12F0805228D113
:1015B40001921A6C42F080521A641B6C03F080533F
:1015C4000193019B01272C4D2B68D8051BD5A368DB
:1015D400274D012B27D12B6F43F001032B67FFF716
:1015E40063FA234E054641F28838336F9A0739D59A
:1015F400002F3FF41BAF1E4A136C23F08053136477
:1016040014E70027DFE72B6843F480732B60FFF7B0
:101614004BFA06462B68D905D9D4FFF745FA801B47
:101624000228F7D934E7052B04D12B6F43F00403C8
:101634002B67D0E72A6F22F001022A672A6F22F073
:1016440004022A67002BCAD1FFF72EFA41F2883828
:1016540006462B6F9B07CBD5FFF726FA801B404528
:10166400F7D915E7FFF720FA401B4045BDD90FE72E
:10167400003802400000474200700040374DAA681D
:1016840002F00C02082A3ED0022B354B4FF0000228
:101694001A662BD1FFF708FA06462B6899011FD466
:1016A400D4E907321343626A43EA8213E26A43EAE3
:1016B4000263A26A5208013A43EA02436B60284B70
:1016C400264D01221A66FFF7EFF904462B689A01AA
:1016D4003FF5B0AEFFF7E8F9001B0228F6D9D7E6CC
:1016E400FFF7E2F9801B0228D7D9D1E6FFF7DCF92E
:1016F40004462B689B017FF59DAEFFF7D5F9001BCF
:101704000228F6D9C4E6012B3FF4ABAE6B68E2695C
:1017140003F4800191427FF4A4AE216A03F03F02F6
:101724008A427FF49EAE616A47F6C0721A40B2EBF9
:10173400811F7FF496AEA26A520803F44031013A45
:10174400B1EB024F7FF48DAEE26A03F07063B3EB4A
:10175400026F14BF012000209BE600BF0038024046
:1017640000004742134908B58B6803F00C03042BAF
:101774001CD0082B1CD14A684B68496813F48003B9
:1017840014BF0D480D48C1F3881118BF002302F09F
:101794003F02A1FB0001FEF71BFD064B5B68C3F390
:1017A400014301335B00B0FBF3F008BD0248FCE7E2
:1017B4000248FAE70038024040787D010024F40032
:1017C4002DE9F0410D46044610B90120BDE8F08131
:1017D400434B1A6802F007028A4228D321688F0714
:1017E4002DD4C80740D43E4B1A6802F00702AA421F
:1017F40065D8226851076BD4130707D5394A216984
:10180400936823F4604343EAC1039360FFF7AAFF9C
:10181400344B354A9B68C3F30313D35CD840334B32
:101824001860334B1868FFF7F5F80020CEE7CAB20A
:101834001A701B6803F007038B42C6D1CEE7294B0D
:1018440011F0040F1EBF9A6842F4E0529A600E072A
:1018540042BF9A6842F460429A609A68A06822F093
:10186400F00202439A60BCE762681E4B012A1CD155
:101874001B6813F4003FA8D01A4EB36823F0030387
:101884001343B360FFF710F941F288380746B36891
:10189400626803F00C03B3EB820FA4D0FFF704F9E2
:1018A400C01B4045F3D9032090E7911E01291B6812
:1018B40002D813F0007FDEE713F0020FDBE7EAB291
:1018C4001A701B6803F00703AB427FF47EAF90E706
:1018D4000449E0688B6823F4E05303438B608BE78F
:1018E400003C02400038024064450008000000202B
:1018F40008000020836B1A68D36B43F48073D363AE
:101904007047F0B589B005460E46FFF7CDF80023C1
:10191400074608212868CDE9003300F08DFE04460F
:10192400D8B9296D2868090400F037FF0446A0B926
:101934004FF0FF310823CDE9021330200223CDE913
:10194400040302A9012328680694079300F0ACFD60
:10195400286800F054FF044690B1204609B0F0BD59
:10196400436B9A0212D500F079FD08AB03EB8403B4
:10197400013443F8200CFFF797F8C01B013026D040
:101984002868436B13F02A0FEAD002E0436B9B04F0
:10199400F1D4436B190702D4436B9A0502D508248A
:1019A4008463DAE7436B9B0701D50224F8E7446BB1
:1019B40014F0200401D02024F2E740F23A53836368
:1019C400019B1BBA3360009B1BBA7360C5E74FF0E1
:1019D4000044C2E72DE9F043154687B004461F468C
:1019E4000A4641B9836B43F00063A3630126304682
:1019F40007B0BDE8F08390F83430012B5FFA83F828
:101A040070D100218163C06DEB19834203D9A36BAC
:101A140043F00073E9E72668206C032384F834302C
:101A2400F162F36B43F44A7343F00203F3632E4B06
:101A3400C3632E4B8160C0E9133101680B684FEA20
:101A4400472923F0C0030B6006F180014FEA990394
:101A5400FFF73EF9064668B12368DA6B22F4957203
:101A6400DA63234A9A63A36B43F08043A36384F845
:101A74003480BBE71F4B2068C3F88C85636C012B53
:101A84004FF0FF33CDE900394FF090024FF00203DD
:101A9400CDE902234FF000014FF00103CDE9041317
:101AA400694618BF6D0200F0FFFC012F13D9822391
:101AB40020682363294600F0F1FD002897D02368AD
:101AC4000B4A9A63A36B0343A363012384F8343062
:101AD400002323638AE7812320682363294600F0D7
:101AE400C4FDEAE7022682E71B1C000869210008FE
:101AF400FF054000008025422DE9F0410F4686B0E5
:101B0400044611461E4647B9836B43F00063A36342
:101B14000127384606B0BDE8F08190F83430012B37
:101B24006DD100228263C06D8B19834203D9A36BEC
:101B340043F00073EBE72068324D032384F834301C
:101B4400C262C36B43F4067343F00203C363E36BE3
:101B5400DD632D4DC3E91352636C012B18BF490299
:101B6400012E11D9A023236300F0CAFD2268054683
:101B740078B1264B9363A36B0343A363012384F8D7
:101B8400343000232363C3E79023236300F09FFDD5
:101B9400ECE7E06B1E4B01684FF00108C3F88C853D
:101BA400402383600B6823F0C00343F040037602B4
:101BB4000B6080323946B308FFF78AF8074680B1D4
:101BC4002268D36B23F4067323F00203D3630F4B11
:101BD4009363A36B43F08043A36384F83480256349
:101BE40096E74FF0FF33CDE900362068902369462D
:101BF400CDE90235CDE9045800F056FC89E7022707
:101C040087E700BFF918000869210008FF054000B4
:101C140000802542704710B5846B236B2068822BAB
:101C240008D100F087FD28B1A36B0343A3632046CA
:101C3400FFF7F0FF2368DA6A22F00802DA6240F262
:101C44003A529A63012384F83430002323632046F4
:101C540000F075FF10BD0000426E0346900F10B5F2
:101C64000870C2F383604870C2F301608870C2F3E5
:101C74000740C870C2F30720D2B208714A719A6E45
:101C8400100DC880C2F303400872C2F3C03048721A
:101C9400C2F380308872C2F34030C872C2F300309D
:101CA400087300204873586C00286BD1D86E40F636
:101CB400FC7404EA820242EA90720A61C0F3C262CE
:101CC4000A75C0F302624A75C0F342528A75C0F3C2
:101CD4008242C0F3C230CA75087608690A7E02F0EF
:101CE400070202320130904058650C7A012204F058
:101CF4000F04A2409A65520A4243DA654FF4007217
:101D04001A66DA6EC2F380304876C2F3C61002F067
:101D14007F028876CA761B6FDA0F0A77C3F34172A3
:101D24004A77C3F382628A77C3F38352CA77C3F3D1
:101D3400405281F820200020C3F3004281F82100A2
:101D440081F82220C3F3C03281F82320C3F3803208
:101D540081F82420C3F3403281F82520C3F30032F4
:101D640081F82620C3F3812281F82720C3F30122BE
:101D7400C3F3460381F8282081F82930012381F830
:101D84002A301BE001280FD1B3F86E00120402F4CC
:101D94007C1202430A610A69013292025A65DA65C9
:101DA4004FF400729A65A9E71A68054991639A6B22
:101DB400012042F080529A6383F8340010BD00BFC2
:101DC400FF054000F0B5002399B0CDE90933CDE912
:101DD40007330B9376230C930AAB044693E807006E
:101DE4008DE8070007AB0ECB206800F01BFB05460F
:101DF40050BB734F0126C7F8A000206800F036FBE3
:101E04000220C7F8A060FEF755FE2068069500F092
:101E14005FFB054690B9206800F034FE30B12068BD
:101E2400A56400F055FB98B1054607E0A664206858
:101E3400002100F0B2FC70B14FF08055012384F80A
:101E44003430A36B2B43A3630125284619B0F0BD9E
:101E5400A36C012BEBD05B4F00214FF6FE7614E010
:101E6400206800F09AFC05460028E7D1206839462E
:101E740000F06AFD0028DFD12946206800F011FB3C
:101E8400069B01330546C10F0693069BB34201D856
:101E94000029E5D0069BB34211D8C5F38075012310
:101EA40020686564ADF8163000F0E4FA50B94FF0DC
:101EB4008061012384F83430A36B0B43C3E74FF0F4
:101EC4008075BBE7636C2068032B43D000F0F0FC03
:101ED40001460028EDD1206800F0E3FA0421606790
:101EE400206800F0DEFA0821A067206800F0D9FA23
:101EF4000C21E067206800F0D4FA636CC4F8800019
:101F0400032B27D00DF11601206800F077FD014660
:101F14000028CED1636C2068032B1BD0BDF81610AB
:101F24002165090400F0DAFC01460028C1D12068CB
:101F340000F0B7FA04216066206800F0B2FA0821C4
:101F4400A066206800F0ADFA0C21E066206800F07D
:101F5400A8FA20670421206800F0A3FA000DE064C9
:101F64000DA92046FFF778FE054628BB226D0346DF
:101F74001204206800F0F8FB0146002899D104F10E
:101F8400100393E807008DE80700231D0ECB20689B
:101F940000F048FA20684FF4007100F04DFB00286F
:101FA4003FF453AF2368084A9A63A36B0343A363C4
:101FB400012384F8343047E74FF0805179E700BFBC
:101FC40000802542000010C1FF05400010B5044602
:101FD40008B9012010BD90F8343003F0FF0213B9A2
:101FE4000277FEF749FC032384F834302046FFF7D8
:101FF400E9FE0028EDD10123A063206384F8343086
:10200400E8E7436C0B60836C4B60C36C8B60036DBF
:10201400CB60436D0B61836D4B61C36D8B61036E4C
:10202400CB61002070470000F0B50323044680F81C
:102034003430636C0068032B8BB00D4602D0B1F5CD
:10204400805F03D1A36B43F080531DE0B1F5006FB3
:1020540037D10021CDE9041100F023FA800149D4DD
:1020640004A92046FFF74DFC60B9059B590344D5EC
:10207400216D2068090400F090FB18B90221206842
:1020840000F0A4FBA36B0343A363A66B2768002E95
:102094003AD0294BBB63012584F8345020684FF4AF
:1020A400007100F0C9FA30B12368234A9A63A36B24
:1020B4000343A36301250123284684F834300BB07D
:1020C400F0BDE9B9CDE9041100F0EBF9820111D4B6
:1020D40004A92046FFF715FC0028D3D1059BDB0398
:1020E4000BD5216D2068090400F057FB0028C9D1E5
:1020F4000146C4E74FF40060C4E74FF08060C1E7D5
:10210400A36B43F00063BFE763680493A36805937C
:10211400E368CDE9063563690893A36909930AABBB
:1021240013E907008DE8070004AB0ECB384600F036
:1021340079F93546B2E700BFFF054000016D10B5DF
:1021440009040446006800F073FB014628B92068BE
:1021540000F0A7F9C0F3432010BDA36B0343A363AE
:102164000020F7E710B5846BFEF7BCFE022826D0EA
:10217400236C5A6DE36B012A5B6D01D0012B1BD1DB
:1021840023680F4A9A63DA6B22F49D72DA63A36BB5
:1021940043F08043A3632046FFF7D0FF05380128AE
:1021A40005D8206800F0C6FAA36B0343A363012398
:1021B40084F83430002323632046FFF72BFD10BD41
:1021C400FF05400010B5846B236840F23A529A63CD
:1021D4002046FFF7B3FF0123053884F83430012883
:1021E4004FF00003236305D8206800F0A3FAA36B23
:1021F4000343A363A36B204613B900F098FC10BDFE
:10220400FFF708FDFBE700002DE9F341056B0446E9
:102214000068436B1A041FD52B071DD5D4E90A6740
:10222400BFB1351D06F12408206800F017F9030A30
:1022340005F8040C05F8033C030C000E05F8023CF9
:1022440005F8010C0435A845EED12036203FA662DE
:10225400E76202B0BDE8F081436BDF0545D54FF47A
:1022640080738363C36B23F4434323F03A03C36350
:10227400C36A2E0723F00103C3621BD515F0220F96
:1022840008D000F057FA28B1A36B0343A363204698
:10229400FFF7C0FC236840F23A529A63012384F8A2
:1022A4003430A9074FF00003236320461AD000F00E
:1022B40046FCCEE72A06CCD5AB0608D500F03AFAA0
:1022C40028B1A36B0343A3632046FFF7A3FCAF0726
:1022D400BFD12268D36A23F00803D362012384F8B0
:1022E4003430204600F027FCB3E7436B5E0426D568
:1022F400290724D5676A002FABD0266A351D06F15D
:10230400240815F8043C019315F8032C206843EACB
:102314000223019315F8022C43EA0243019315F8B2
:10232400012C01A943EA02630435019300F099F8F2
:102334004545E6D12036203F2662676289E7426B35
:1023440040F23A231A4284D0436B9A0742BFA36BEC
:1023540043F00203A363436B1B0742BFA36B43F029
:102364000803A363436B9F0642BFA36B43F02003A0
:10237400A363436BDE0642BFA36B43F01003A36366
:10238400436B990542BFA36B43F00803A36340F278
:102394003A738363C36B23F44E7323F00203C36362
:1023A40000F0C8F9A36B2A0743EA0003A36308D526
:1023B400012384F83430002323632046FFF72AFCEA
:1023C40047E72B067FF545AF15F0300F0DD0E06BD6
:1023D400114B0365FEF7B5FC00283FF43AAFE06B00
:1023E40002B0BDE8F041FFF7EDBE15F0030509D0DA
:1023F400206C0A4B0365FEF7A4FC00283FF429AFC8
:10240400206CEDE70123A563204684F8343025636E
:1024140000F08DFB1DE700BFC9210008252400083A
:10242400FFF7D0BE84B010B503AC84E80E000B46B1
:10243400049942680B4305990B4306990B4307998A
:102444000B430899BDE8104022F4FD420B4322F0EF
:102454007F021343436004B000207047D0F880002B
:1024640070470B68C0F88030002070470323036076
:1024740000207047006800F0030070470B6810B537
:102484008360D1E90134C2682343CC6809692343DA
:1024940022F47F620B4322F00F021343C360002037
:1024A40010BD1430405870470B6810B543624B6838
:1024B4008362D1E9023423430C69C26A4969234324
:1024C4000B4322F0F7021343C362002010BD000047
:1024D40010B5002386B0CDE90133CDE9033301A95A
:1024E4004FF4806305930446FFF7C8FF0A4B4FF48B
:1024F400FA521B68B3FBF2F341F288325343013BB7
:1025040007D3626B1206FAD5C523A363002006B075
:1025140010BD4FF00040FAE7000000200346444895
:1025240010B500684FF4FA54B0FBF4F04243002AAB
:1025340049D0586B10F0450F07D0000505D45A6BED
:10254400540704D50420986310BD013AEFE75A6B91
:10255400D00703D501229A630120F5E7C5229A63C7
:102564001A69D2B29142F7D15B6932481840002807
:10257400EAD0002B2ADB5A002BD49C002BD4D900A0
:102584002BD41A012CD45C012DD4D9012ED41A02D7
:102594002FD45C0230D4990231D4DA0232D45C03F1
:1025A40033D4990334D4DA0335D41C0436D459040F
:1025B40037D49A0438D413F0080F0CBF4FF480308A
:1025C4004FF40000C0E74FF00040BDE74FF000704B
:1025D400BAE74020B8E78020B6E74FF48070B3E74D
:1025E4004FF40070B0E74FF48060ADE74FF4006043
:1025F400AAE74FF48050A7E74FF40050A4E74FF444
:102604008040A1E74FF400409EE74FF400309BE781
:102614004FF4802098E74FF4002095E74FF48010A2
:1026240092E74FF400108FE74FF480008CE700BF6F
:102634000000002008E0FFFD30B587B010254023DE
:10264400CDE90253019100224FF4806301A9CDE941
:1026540004230446FFF712FF41F28832294620463C
:1026640007B0BDE83040FFF759BF30B587B011253A
:102674004023CDE90253019100224FF4806301A964
:10268400CDE904230446FFF7F9FE41F288322946D6
:10269400204607B0BDE83040FFF740BF30B587B0F3
:1026A40012254023CDE90253019100224FF48063A7
:1026B40001A9CDE904230446FFF7E0FE41F2883284
:1026C4002946204607B0BDE83040FFF727BF30B5A4
:1026D40087B018254023CDE90253019100224FF41D
:1026E400806301A9CDE904230446FFF7C7FE41F244
:1026F40088322946204607B0BDE83040FFF70EBFB8
:1027040030B587B019254023CDE902530191002249
:102714004FF4806301A9CDE904230446FFF7AEFE1C
:1027240041F288322946204607B0BDE83040FFF721
:10273400F5BE000030B5002387B00C254022CDE95A
:102744000323CDE9013501A94FF4806304460593C1
:10275400FFF794FE034A2946204607B0BDE83040FF
:10276400FFF7DCBE00E1F50530B587B0072540234F
:10277400CDE9025301924FF48063002201A9CDE90F
:1027840004230446FFF77AFE41F2883229462046A4
:1027940007B0BDE83040FFF7C1BE30B587B037257C
:1027A4004023CDE90253019100224FF4806301A933
:1027B400CDE904230446FFF761FE41F2883229463D
:1027C400204607B0BDE83040FFF7A8BE30B587B05B
:1027D40006254023CDE90253019100224FF4806382
:1027E40001A9CDE904230446FFF748FE41F28832EB
:1027F4002946204607B0BDE83040FFF78FBE30B50C
:10280400002387B033254022CDE90323CDE90135E8
:1028140001A94FF4806304460593FFF72FFE41F2AC
:1028240088322946204607B0BDE83040FFF776BE1F
:1028340030B587B00D254023CDE902530191002224
:102844004FF4806301A9CDE904230446FFF716FE83
:1028540041F288322946204607B0BDE83040FFF7F0
:102864005DBE0000114B4FF4FA511B68B3FBF1F34A
:1028740041F2883102464B43013B13D3516B11F0B3
:10288400450FF9D00905F7D4536B5B0702D5042033
:1028940090637047506B10F0010014BF0123C523EF
:1028A400936370474FF00040704700BF0000002062
:1028B40010B5002386B00222CDE90132C022CDE951
:1028C400032301A94FF4806304460593FFF7D6FD63
:1028D400204606B0BDE81040FFF7C4BF10B586B06F
:1028E4000922C023CDE9022301914FF48063002122
:1028F400CDE9041301A90446FFF7C0FD204606B044
:10290400BDE81040FFF7AEBF0E4B4FF4FA511B6801
:10291400B3FBF1F341F2883102464B43013B0ED342
:10292400516B11F0450FF9D00905F7D4506B10F035
:10293400040015BF0420C5239063936370474FF0D0
:10294400004070470000002010B541F0004186B0FF
:10295400292241F480114023CDE9022301914FF44F
:1029640080630021CDE9041301A90446FFF786FD25
:10297400204606B0BDE81040FFF7C6BF03461E4818
:1029840010B500684FF4FA54B0FBF4F041F2883407
:102994006043013829D35C6B14F0450FF9D024054A
:1029A400F7D4586B440702D50420986310BD586BC4
:1029B400C00703D501229A630120F7E71869C0B262
:1029C4008142F9D1C52199635B6913F4604002D156
:1029D4001B0C1380EAE75A040AD413F4004F0CBF0B
:1029E4004FF480304FF48050E0E74FF00040DDE7D3
:1029F4004FF40050DAE700BF0000002070B5002358
:102A040086B003264022CDE90323CDE901360D46E5
:102A14004FF4806301A904460593FFF72FFD2A466E
:102A24003146204606B0BDE87040FFF7A7BF00005E
:102A3400134B4FF4FA511B68B3FBF1F341F28831A5
:102A440002464B43013B17D3516B11F0450FF9D0AC
:102A54000805F7D4536B590702D5042090637047D7
:102A6400506B10F0010002D0012393637047536B45
:102A74005B0603D54023F8E74FF00040704700BFE2
:102A84000000002010B54FF4D57286B00823CDE9BC
:102A9400012340210023CDE903134FF4806301A9EE
:102AA40004460593FFF7EAFC204606B0BDE8104053
:102AB400FFF7BEBF08B50349034801F0AFFC034B61
:102AC400187008BD340100207C450008380100203E
:102AD4000020704708B513460A4601460348FEF72E
:102AE40079FF003818BF012008BD00BF8C0000200A
:102AF40008B513460A4601460348FEF7FDFF0038B1
:102B040018BF012008BD00BF8C00002008B5034891
:102B1400FFF714FB043818BF012008BD8C00002007
:102B240001460148FFF76DBA8C000020704708B5D4
:102B3400FFF7FCFF08BD08B500F004F908BD08B5AF
:102B440000F006F908BD07B501238DF8073000F041
:102B54001FF808B98DF807009DF8070003B05DF869
:102B640004FB000008B5FFF7EEFF01280CD107486D
:102B7400FFF72CFA38B905484FF40061FFF754FA0F
:102B8400003818BF012008BD0120FCE78C0000209C
:102B940008B54FF400410348FEF722FCB0FA80F078
:102BA400400908BD0000024030B5124B1C7814F0F7
:102BB400010489B0154619D1032919D8DFE801F0B9
:102BC4000D0208106846FFF7ABFF069B2B6004E07C
:102BD4006846FFF7A5FF079B2B80204609B030BD50
:102BE4006846FFF79DFF079B5B0AEFE70324F4E7C2
:102BF4000424F2E70C00002010B5064C01232370D6
:102C0400FFF784FF18B9237803F0FE0323702078BC
:102C140010BD00BF0C00002038B5FDF745FF47F29A
:102C24002F550446FDF740FF031BAB4202D94FF07A
:102C3400FF3003E0FFF76AFF0028F3D138BD00003E
:102C4400F8B5194C1F4600230D4616462360FFF7BE
:102C5400E3FF002801DA0120F8BD3A463146284650
:102C6400FFF746FF0028F6D1FDF71EFF47F22F5667
:102C74000546236823B9FDF717FF431BB342F8D970
:102C84002368002BE7D000232360FDF70DFF47F2F4
:102C94002F550446FDF708FF031BAB42DBD8FFF7B3
:102CA40035FF0028F6D1D7E74001002070B50C4667
:102CB40015461E46FFF7B0FF002801DA012070BD5B
:102CC400324629462046FFF705FF0028F6D1114C6D
:102CD4002060FDF7E9FE47F22F560546236823B925
:102CE400FDF7E2FE431BB342F8D92368002BE5D07D
:102CF40000232360FDF7D8FE47F22F550446FDF765
:102D0400D3FE031BAB42D9D8FFF700FF0028F6D14E
:102D1400D5E700BF3C01002010B5FFF723FF084CA6
:102D240058B901232370FFF7F1FE18B9237803F093
:102D3400FE0323702378DBB22370207810BD00BF1C
:102D44000C000020014B01221A6070474001002052
:102D5400014B01221A6070473C010020034B1A18F2
:102D640003EB8003107A5B685B6818476C030020F0
:102D740038B5084D2B5C04464BB905EB80022B1883
:102D84005268187A1268904710B901232B55002015
:102D940038BD00BF6C03002030B4054C251804EB8B
:102DA400800460688468287AA44630BC604700BF09
:102DB4006C03002030B4054C251804EB80046068D3
:102DC400C468287AA44630BC604700BF6C03002066
:102DD400054B10B41C1803EB8003207A5B685DF884
:102DE400044B1B69184700BF6C0300200068704740
:102DF4000B0A017043700B0C090E8370C17070478D
:102E0400024400F8011B9042FBD170471B4B024661
:102E1400186830B560B11468A04207D15C68906846
:102E2400844203D19C685069844212D0002400E09B
:102E340001241869B8B11568A84207D15D69906882
:102E4400854203D198695269904206D03CB1002072
:102E540009E0002241B1102005E00122FAE702292D
:102E640014BF1220002030BD03EB02139889A0F593
:102E74008073584258410001F5E700BF4403002025
:102E84001F4AF0B5136806689E4207D185685468E6
:102E9400A54203D195684469A54219D01469B44286
:102EA40018D157698568AF4214D197694569AF4213
:102EB40010D1012302EB03108089E9B902EB03115D
:102EC4008989013189B202EB0312581C9181F0BD4A
:102ED4000023EFE70BB18CB901231D0102EB0314AE
:102EE400565185684069A06000206560A081002972
:102EF400E4D04FF48071E6E70028FAD00020E6E73A
:102F0400440300200138012815D80C4A010102EBC2
:102F140000108389B3F5807F04D1002383810023CB
:102F2400535006E0002BFAD0013B9BB28381002B67
:102F3400F5D0002070470220704700BF44030020F2
:102F4400054B1A68904204BF00221A601A69904225
:102F540004BF00221A61704744030020C369023988
:102F6400023B8B4283BF4389006B01FB03000020BB
:102F74007047C36A0268043390895289B1FBF0F147
:102F8400B1FBF2F1186830B1814202D3091A083357
:102F9400F8E7586808447047034600F10B01002025
:102FA400C20142EA500213F8010B50FA82F28B423A
:102FB400D0B2F5D17047036810B553B119460A462B
:102FC40011F8014B1F2C0CD93A2CF8D1197830295F
:102FD40002D04FF0FF3005E001339A42F9D10132BB
:102FE4000260002010BD38B50D46044618B909200A
:102FF40000232B6038BD0368002BF8D01A78002A10
:10300400F5D08188DA889142F1D15878FFF7A6FE8D
:1030140010F00100EBD12368EBE7F8B5C378044660
:103024000BB90020F8BD456B00F138070123407847
:103034002A463946FFF7BEFE90B9A36A226AE070B9
:10304400EB1A9342EDD2A678012EEAD9236A60786E
:103054001D442A4601233946FFF7ACFE013EF3E73F
:103064000120DFE701380A4411F8013B00F8013F71
:103074009142F9D17047C2F307238A76CB7603785D
:10308400032B01BF120C0A75120A4A75704738B532
:10309400436B8B4205460C4610D0FFF7BEFF60B968
:1030A40022466878012305F13801FFF775FE0028F0
:1030B4001CBF4FF0FF3401206C6338BD0020FCE7D7
:1030C400002310B5C3704FF0FF3343630446FFF78A
:1030D400DEFF034618BBB4F836124AF65522914275
:1030E4001FD194F83820E92A05D0A26B0F4902F0C9
:1030F400FF128A4217D104F16E00FFF777FE0C4AE3
:1031040020F07F40904208D004F18A00FFF76EFE61
:10311400084BC31A18BF01235B00184610BD0423D3
:10312400FBE70323F9E70223F7E700BFEB00900076
:1031340046415400464154332DE9F043002385B001
:103144000B600F461646FFF736FF051EC0F22D81B1
:10315400994B53F82540002C00F029813C602378DA
:1031640006F0FE0673B16078FFF7F8FDC70709D4CF
:10317400002E00F0F680410740F1F3800A2005B0EC
:10318400BDE8F0830023E8B223706070FFF7F0FD20
:10319400C20700F10E810EB14307EFD4607804F149
:1031A4000C020221FFF714FE08B10120E7E7A3890E
:1031B400A3F50072B2F5606FF7D85D1E1D40F4D11F
:1031C40029462046FFF77CFF022840F0D4806F4652
:1031D40004F5FF7304F23E213A4613F8040C10B1CF
:1031E4001846FFF703FE10338B4242F8040BF4D168
:1031F400002657F8045B002D00F0B58029462046D0
:10320400FFF75EFF012800F2AF80B4F80C80B4F839
:103214004330434540F0B580B4F84E7027B904F10B
:103224005C00FFF7E3FD074694F848202762531E2D
:10323400012BA27000F2A58094F845606681002EEF
:1032440000F09F80731E334240F09B80B4F8499095
:10325400A4F808904FEA5813B9FBF3F103FB119358
:103264009BB2002B40F08D80B4F84B0018B904F1E8
:103274005800FFF7BBFDB4F84630002B00F0818006
:1032840007FB02FC1944614488427AD3401AB042D5
:10329400B0FBF6F275D34FF6F570824273D840F660
:1032A400F576B2428CBF0226012602322B44294411
:1032B400032EE2616562A362216366D1B4F86230D1
:1032C40059EA03035DD104F16400FFF78FFD920016
:1032D40008F1FF331344B3FBF8F3BB42E06250D868
:1032E4004FF0FF33C4E90533032E4FF080032371FD
:1032F4002BD1B4F86830012B27D1691C2046FFF785
:10330400C6FE10BBB4F8362220714AF655239A4201
:103314001BD104F13800FFF769FD284B984214D102
:1033240004F50770FFF762FD03F1FF5303F5005343
:103334002033984209D104F50870FFF757FDA061C6
:1033440004F50970FFF752FD60611D4A2670138869
:1033540001339BB21380E3801A4B23612046FFF7AD
:10336400EFFD00200BE703200136042E7FF441AF6C
:10337400042806D119E704283FF417AF01287FF683
:1033840044AF0D20FBE603268FE7B9F1000FF8D018
:10339400022E03EB0C004FEA42031BBF9B1802F002
:1033A40001021A4602EB530292E70B20E7E60C20D7
:1033B400E5E60320E3E600BF6803002052526141C2
:1033C400640300204401002001292DE9F843054647
:1033D4000E46144640F28680C3698B4240F28280D6
:1033E4000378022B47D0032B5DD0012B7AD101EB5C
:1033F4005107816A8389B7FBF3F31944FFF747FE4A
:1034040078BBAB89B7FBF3F205F1380907F1010882
:1034140003FB127716F001061FBF19F807202301DA
:1034240003F0F00302F00F0214BF1343E3B209F8F0
:103434000730A96A0123EB702846AB89B8FBF3F384
:103444001944FFF724FE60B9AB89B8FBF3F203FB20
:10345400128846B1C4F3071409F808400123EB703D
:103464000020BDE8F88319F80830C4F3032423F0DE
:103474000F031C43F0E783895B08B1FBF3F3816A14
:103484001944FFF704FE0028EBD1AA89760005F160
:103494003803B6FBF2F102FB11669A199C55C4F38A
:1034A40007245470DAE783899B08B1FBF3F3816A3C
:1034B4001944FFF7ECFD0028D3D1AA89B60005F121
:1034C4003803B6FBF2F102FB116633441846FFF7EA
:1034D4008DFC24F0704400F0704121431846FFF73E
:1034E40087FCBBE70220BCE7F8B50446FFF795FD6F
:1034F4000546002841D12378032B36D12779012FA3
:1035040033D104F138060146A28930465523FFF72A
:1035140077FC84F83632AA2384F8373252234122C6
:10352400722184F8383084F83930612384F83A30D1
:1035340084F81F3284F83B2084F81C1284F81D128E
:1035440084F81E22A16904F50870FFF751FC616933
:1035540004F50970FFF74CFC626A6078013262631B
:103564003B463146FFF726FC257100226078114660
:10357400FFF72EFC003818BF0120F8BD03284B8B41
:1035840004BF8A8A43EA0243184670470129F8B502
:1035940007460C4663D9C369994260D20378022B6B
:1035A40032D0032B43D0012B59D101EB5105816A51
:1035B4008389B5FBF3F31944FFF769FD10B14FF0AC
:1035C400FF30F8BDB989B5FBF1F36E1C01FB13554F
:1035D400BB6AB6FBF1F13D441944384695F83850BE
:1035E400FFF755FD0028EAD1BB89B6FBF3F203FBD4
:1035F4001266B81990F8383045EA0320E3074CBF47
:103604000009C0F30B00DCE783895B08B1FBF3F32B
:10361400816A1944FFF73BFD0028D0D1BB896400BF
:10362400B4FBF3F203FB12443C44208FC9E78389C3
:103634009B08B1FBF3F3816A1944FFF728FD0028C6
:10364400BDD1BB89A40007F13800B4FBF3F203FB3E
:1036540012442044FFF7CAFB20F07040B1E7012078
:10366400AFE7F8B50C46012C0568064611462BD980
:10367400EB69A34228D92AB14FF0FF322846FFF75D
:10368400A3FE38B921463068FFF780FF2746044679
:1036940008B90020F8BD012816D0431C16D000221A
:1036A40039462846FFF790FE0028F3D1D5E90632C3
:1036B400911E8B4205D20133AB612B7943F0010398
:1036C4002B71A242DED8E4E70220E3E70120E1E720
:1036D4002DE9F041056880460F4671B96E69EEB177
:1036E400EB699E4228BF01263446EB690134A342AC
:1036F40017D8012E14D1002406E02846FFF746FF10
:103704000128044603D801242046BDE8F081431C67
:1037140030D0EB698342F7D83E46E5E70126E3E77C
:103724000224D8F800002146FFF730FF30B1012809
:10373400E9D001301ED0B442D7D1DCE74FF0FF32DC
:1037440021462846FFF740FE90B957B9D5E906321D
:10375400023A93426C6110D92B7943F001032B7127
:10376400D2E7224639462846FFF72EFE0028EDD040
:103774000128C8D14FF0FF34C6E7013BAB61EBE74A
:103784002DE9F8434769C369054689462037A3B143
:10379400B7F5001F11D20468A289B7FBF2F002FB4F
:1037A4001072002A4ED1A9690133EB6141B9238912
:1037B400B3EB571F46D80023EB610420BDE8F88320
:1037C400B4F80A8008F1FF3818EA00083AD1204614
:1037D400FFF7DCFE0128064601D80220EEE7421C72
:1037E40001D10120EAE7E369834225D8B9F1000F4A
:1037F400E1D0A9692846FFF76BFF0646002839D0B7
:103804000128EAD0431CECD02046FFF706FC014611
:103814000028E6D104F13800A289FFF7F1FA314615
:103824002046FFF79BFB4FF00109638960639845CD
:1038340014D3A0EB08006063AE6131462046FFF765
:103844008DFBE861A2896F6104F13803B7FBF2F1E3
:1038540002FB11773B442B620020AFE784F803900E
:103864002046FFF7DAFB0028BBD1606B08F10108A2
:103874000130DAE70720A1E7B1F5001FF8B50468C5
:1038840006460D4601D30220F8BDCA06FBD1826864
:103894004161CAB92378022B01D9E36AABB9238900
:1038A400B3EB551FEFD9E06AC6E906200028EAD039
:1038B400A289B5FBF2F3383402FB135518442C44A7
:1038C400F06134620020DFE71346A2896789574319
:1038D4001A46BD42114603D22046FFF73FFBE3E7F9
:1038E4003068FFF753FE431C024606D00128CAD9AC
:1038F400E3698342C7D9ED1BEBE70120C4E700006D
:103904002DE9F04F85B00368009300210446FFF7CA
:10391400B3FF0646002840F096804FF0FF3A4FF080
:10392400FF08C4F830A0C146E1690098FFF7AFFB77
:103934000646002840F08780256A2F78002F00F083
:103944008680EA7AE52F02F03F03A37103D01007C3
:1039540004D50F2B04D0C4F830A04EE00F2B54D163
:1039640094F82F3059063ED47A0644D5636995F805
:103974000D80236307F0BF076B7B43453DD16B8B01
:10398400002B3AD12E78009BDFF8CC90D3F810B0FE
:1039940006F03F06013E0D235E43012219F8013B68
:1039A400EB5A6AB3FE2E28D81846039300F056FD4E
:1039B400711C02903BF81600019100F04FFD029A31
:1039C40082421AD1039B01991A460E46214B4B455C
:1039D400E4D12B785B0603D512B13BF8163063B9FA
:1039E400013F5FFA87F900212046FFF7C9FE06462A
:1039F400002899D027E0B945BED04FF0FF09F2E77F
:103A04004FF6FF718B42E1D0F7E7B9F1000F04D113
:103A14002846FFF7C1FA404515D094F82F6016F0F8
:103A2400010698D104F1240205F10B0115F8013BBC
:103A340012F8010B8D42A3EB000302D0002BF5D04A
:103A440089E7002B87D1304605B0BDE8F08F042606
:103A5400F9E700BFAD450008A04500082DE9F04F87
:103A640090F82F4014F0A00489B0054640F0358149
:103A74000668326932F81430002B69D105F1240745
:103A84000C22394605A8FFF7EDFA9DF81FB01BF08C
:103A9400010F78D04023DFF848A285F82F304FF08B
:103AA40001080B2205A93846D6F81090FFF7DAFA78
:103AB400B8F1050F5DD9A9F10201434631F8022F8F
:103AC400002A47D105A8072203F00F0C0CF130019E
:103AD400392988BF0CF137010F2B00F8011D02F1C1
:103AE400FF324FEA131146D802F120036B447E21C2
:103AF40003F8141C05F12301084600239A4206D05A
:103B040010F801CFBCF1200F03F1010E35D1072AC3
:103B14009EBF02F1180002F12000684403F1010382
:103B240096BF10F8140C20200132072BC854EED98C
:103B34002846FFF7E5FE814608BB08F10108B8F105
:103B4400640FAED14FF00709484609B0BDE8F08FC5
:103B540001348FE7102002F0010C0CEB430313F443
:103B6400803F18BF83EA0A0301384FEA5202F2D1B8
:103B7400A4E74346A6E70B46A6E77346BEE7042838
:103B8400E2D185F82FB01BF0020F18BF0C344FF0B0
:103B94000001284618BF0D23D5F800A016BFB4FBBA
:103BA400F3F401240134FFF767FE8146002840F056
:103BB4008F808046E9695046FFF769FA81460028FC
:103BC40040F086802B6A1B78E52B01D0002B76D140
:103BD40008F10108444573D1013C55D06969284670
:103BE400A1EB4411FFF748FE81460028ACD13846CA
:103BF400FFF7D2F94FF6FF780190E9693046FFF7F5
:103C040046FA814600289FD12B6A019AD6F810E023
:103C14005A73E1B24FF00F024FF00D0CDA72DFF875
:103C2400C4A018734A1E0CFB02F29876D876844618
:103C34001AF8019B404518BF3EF8120003F809002A
:103C440003EB090B0CF1010C18BF01324FEA1029E8
:103C5400002808BF4046BCF10D0F8BF80190E7D156
:103C6400404502D03EF812200AB941F040011970D3
:103C74000123F37000212846FFF782FD81460028C6
:103C84007FF462AF013CB8D1E9693046FFF7FFF930
:103C9400814600287FF458AF01462022286AFFF7A6
:103CA400AFF80B22286A3946FFF7DCF995F82F3074
:103CB4002A6A03F0180313730123F37044E7804660
:103CC40001212846FFF75CFD814600283FF472AFCE
:103CD400B9F1040F3FF436AF36E74FF0060933E786
:103CE40021100100A04500082DE9F74FD0F800A0ED
:103CF4000646884611F8013B2F2BFAD05C2BF8D0EE
:103D04000023B36098F800301F2B00F2B6808023A4
:103D14000021304686F82F3003B0BDE8F04FFFF79E
:103D2400ABBD0135BDE0B5F5807FCDE900230ED0F4
:103D34000121204600F076FB48B17F28DDE900230D
:103D440007D8824C14F8011B19B18842FAD1062015
:103D54004AE023F8020F2F4698E03BF81730202B57
:103D640002D02E2B40F0A980013FA3E00131B2E044
:103D74009B4504D2BA4246D10B2B3DD101E00B2B1B
:103D840035D144F003040B2396F82420E52A04BF1C
:103D9400052286F82420082B04BFAD00EDB205F0FF
:103DA4000C030C2B03D005F00302032A01D144F0C9
:103DB4000204A10709D405F00305012D08BF44F04E
:103DC4001004042B08BF44F0080486F82F40304642
:103DD400FFF796FD96F82F3000283AD0042803D137
:103DE40013F0040F08BF052003B0BDE8F08FBA42FA
:103DF40002D044F00304C7D8AD00EDB23A460B2319
:103E04004FF0080B91E07F280ED90021CDE9002363
:103E140000F008FB44F00204DDE9002360B14C49E2
:103E2400014411F8800C38B1DFF828C11CF8011BDB
:103E340000297ED08142F9D144F003045F2006EBCF
:103E44000B010BF1010B81F824006EE045F0020533
:103E5400F5E75A07C8D4B379DB0668D5BAF80C205D
:103E64007369B3FBF2F00AF1380102FB1033194411
:103E74009AF80000FFF782FBB0603368D3F8109023
:103E8400A9F1020B08F1FF325B46002712F8014F3B
:103E94001F2C07F101050CD92F2C02D05C2C7FF4C8
:103EA40042AF18F805302F2B3FF43BAF5C2B3FF4A7
:103EB40038AFA844002F7FF450AF4FF0000329F827
:103EC4001730002F3FF443AF20210B2206F12400CA
:103ED400FEF796FF002139F81130202B3FF446AF4E
:103EE4002E2B3FF443AF1F2C8CBF00240124A400CD
:103EF40009B144F003043BF817302E2B01D0013FE5
:103F0400F9D14FF0000B08235D4639F811004A1C23
:103F140000283FF439AF202805D02E287FF428AF9D
:103F2400BA423FF425AF44F003041146EDE70520FF
:103F34005AE7A0F14101192988D9A0F16101192991
:103F44009EBF203845F0010580B278E7904500080F
:103F5400AD4500089945000830B585B0CDE900109D
:103F640003A803911446FFF726F8011E19DB0E4D32
:103F740055F8210018B1FEF7E3FF00230370019BFD
:103F840023B945F82130002005B030BD0022012CB2
:103F940045F821301A70F6D101A96846FFF7CCF82C
:103FA400F2E70B20F0E700BF680300202DE9F0439F
:103FB40091B0904601910446002800F0F28002F08E
:103FC4003F06324602A901A8FFF7B6F807460028C3
:103FD40071D1029D0199039503A8FFF785FE58B995
:103FE4009DF93B30002B6DDB18F03E0F14BF01210F
:103FF400002103A8FEF70AFF18F01C0F6ED000285A
:1040040062D0042857D1684B1A681AB11B69002B77
:1040140040F0C38003A8FFF721FD00284BD146F0F0
:1040240008063007DDF82C8035D5FEF751FD024631
:10403400014608F10E00FEF7DBFE114608F11600FA
:10404400FEF7D6FE202388F80B3041462878FFF788
:1040540095FA002280462846FFF70DF80022012336
:104064000A774A778A77CA77EB70B8F1000F0ED0D7
:10407400414603A8D5F83490FFF7F3FAD8B9494676
:104084002846FFF704F808F1FF336B6198B930074D
:1040940048BF46F040066B6BDDF82C806362012E4E
:1040A400C4F8288094BF0021012103A8FEF7E8FE8C
:1040B400206100BB0220002323600746384611B06C
:1040C400BDE8F083062097E79DF8123013F0110F36
:1040D4000FD118F0040FA4D00820ECE70028EAD18F
:1040E4009DF81230DA065AD418F0020FCFD0DB074D
:1040F400CDD50720DFE728784146FFF73FFAA060D7
:1041040008F11C00FEF772FE0023EA88E06004F167
:104114003008A280E3624FF48052256026756375EF
:104124002362A36119464046FEF76AFEB206C5D56E
:10413400E668002EC2D0B5F80A90AA89A168A661E3
:1041440002FB09F94E450BD92068FFF71FFA012835
:104154000146A6EB09061ED9431CF3D1012000E059
:104164000020E1610028A6D1AB89B6FBF3F203FB82
:104174001266002EA2D02846FEF7F0FE002899D041
:1041840002442262687801234146FEF705FE0028B6
:1041940094D001208FE70220E3E712208BE704206C
:1041A40089E709278AE700BF440300202DE9F04F7F
:1041B4009B4687B000238A46CBF8003005A9044605
:1041C4001646FEF710FF054638BB657D2DBB237DE3
:1041D40013F00103019300F0A380A369E768FF1AB9
:1041E400B74204F1300328BF37460293AFB1059EAE
:1041F400A169B389B1FBF3F203FB1213002B7CD149
:10420400B6F80A9009F1FF3919EA02091BD141B93C
:10421400A068012810D802256575284607B0BDE8B6
:10422400F08FE36A1BB12046FEF7A3FEF1E7E169D4
:104234002068FFF7ABF9ECE7431C03D10123019D90
:104244006375EAE7E061E1693046FEF787FE00281E
:10425400E1D0B389BB4209EB000830D8B7FBF3F3D4
:104264007289707809EB0301914288BFA2EB0903BC
:10427400514642460393FEF78FFD0028DED194F9A0
:104284001420039B002A0DDA206AA0EB0800984250
:1042940008D2B28932B104F1300102FB00A0FEF76A
:1042A400E1FE039BB6895E43A3693344A361DBF853
:1042B40000303344B244CBF80030BF1B96E7226A87
:1042C400424518D094F914307078002B04F1300969
:1042D40009DA01234946FEF76DFD0028AED1237D9E
:1042E40003F07F0323757078012342464946FEF7A5
:1042F40053FD0028A2D1C4F82080B689A169B1FB7E
:10430400F6F306FB1311761ABE4228BF3E46002E72
:10431400CAD0029B324619445046FEF7A3FEC3E7B7
:1043240007257AE72DE9F34101A90546FEF75BFE6F
:10433400044600283BD12B7D13F0400437D01B06E4
:10434400019F0BD52A6A7878012305F13001FEF725
:1043540031FD80BB2B7D03F07F032B75FEF7B8FB8B
:10436400696A80463846FEF792FE0446F8B9AE6A9A
:10437400F37A43F02003F372AA6828683146FEF703
:104384007AFEE96806F11C00FEF732FD414606F1AB
:104394001600FEF72DFD0123B474F4743846FB7047
:1043A400FFF7A2F82B7D23F0400304462B7520462B
:1043B40002B0BDE8F0810124F9E713B50446FFF724
:1043C400B1FF48B901A92046FEF70DFE20B92069C6
:1043D400FEF798FD00B9206002B010BD30B50E4B59
:1043E4005C7A054604F0FF00A4B95C7A18555C7A3F
:1043F40003EB840465605C7A1C4422725A7A541C70
:10440400E4B25C723A2330324B702F230A708B7003
:10441400C87030BD0120FCE76C0300200022FFF7C8
:10442400DDBF00007F2815D931B1FF2811D80A4B10
:10443400803833F810007047074B33F8022B824260
:1044440005D001318029F8D18031C8B2704789B2D2
:10445400FAE70020704700BFDC48000870B51E4B27
:104464001E4AB0F5805F28BF1346191D31F8043C7D
:104474000A46ABB1984213D331F8024C250AE6B28E
:1044840053FA84F4A04221DA082D09D8DFE805F0B4
:1044940005090F11131517191B00C01A31F8100064
:1044A40070BDC31A03F00103C01A80B2F8E71038D4
:1044B400FBE72038F9E73038F7E71A38F5E7083032
:1044C400F3E75038F1E7A0F5E350EEE70431002DAF
:1044D400CCD102EB4603C8E7EA4600082E460008A2
:1044E40002440346934200D1704703F8011BF9E7E5
:1044F40070B50D4D0D4C641BA4100026A64209D1C5
:104504000B4D0C4C00F018F8641BA4100026A642B6
:1045140005D170BD55F8043B98470136EEE755F8D0
:10452400043B98470136F2E7E4490008E4490008EF
:10453400E4490008E8490008F8B500BFF8BC08BC25
:104544009E467047F8B500BFF8BC08BC9E4670474D
:10455400686F7275735F66772E62696E000102047C
:10456400000000000000000001020304060708091F
:1045740000061016000610161D2D0008FD2B00085D
:10458400B12C0008452C0008AD2B0008222A3A3C27
:104594003E3F7C7F002B2C3B3D5B5D000103050708
:1045A400090E10121416181C1E4355454141414171
:1045B4004345454549494941414592924F4F4F55DD
:1045C40055594F554F9C4F9E9F41494F55A5A5A600
:1045D400A7A8A9AAABACADAEAFB0B1B2B3B44141D8
:1045E40041B8B9BABBBCBDBEBFC0C1C2C3C4C541DA
:1045F40041C8C9CACBCCCDCECFD1D1454545494917
:104604004949D9DADBDCDD49DF4FE14F4F4F4FE653
:10461400E8E85555555959EEEFF0F1F2F3F4F5F693
:10462400F7F8F9FAFBFCFDFEFF007D1D0100632C89
:10463400001E9601A01E5A01001F0806101F060640
:10464400201F0806301F0806401F0606511F0700DA
:10465400591F521F5B1F541F5D1F561F5F1F601F92
:104664000806701F0E00BA1FBB1FC81FC91FCA1F30
:10467400CB1FDA1FDB1FF81FF91FEA1FEB1FFA1FFE
:10468400FB1F801F0806901F0806A01F0806B01F06
:104694000400B81FB91FB21FBC1FCC1F0100C31FE9
:1046A400D01F0206E01F0206E51F0100EC1FF21FE7
:1046B4000100FC1F4E2101003221702110028421CF
:1046C40001008321D0241A05302C2F04602C020110
:1046D400672C0601752C0201802C6401002D26082C
:1046E40041FF1A03000061001A03E0001703F800F9
:1046F4000703FF00010078010001300132010601C7
:10470400390110014A012E017901060180014D0091
:1047140043028101820182018401840186018701AF
:10472400870189018A018B018B018D018E018F0123
:1047340090019101910193019401F6019601970171
:10474400980198013D029B019C019D0120029F015B
:10475400A001A001A201A201A401A401A601A70134
:10476400A701A901AA01AB01AC01AC01AE01AF01E3
:10477400AF01B101B201B301B301B501B501B70194
:10478400B801B801BA01BB01BC01BC01BE01F7010B
:10479400C001C101C201C301C401C501C401C701F3
:1047A400C801C701CA01CB01CA01CD011001DD0155
:1047B40001008E01DE011201F3010300F101F40195
:1047C400F401F8012801220212013A020900652CC1
:1047D4003B023B023D02662C3F0240024102410281
:1047E40046020A01530240008101860155028901F3
:1047F4008A0158028F015A0290015C025D025E0236
:104804005F0293016102620294016402650266021E
:104814006702970196016A02622C6C026D026E02B5
:104824009C01700271029D01730274029F01760261
:104834007702780279027A027B027C02642C7E027F
:104844007F02A60181028202A901840285028602F6
:104854008702AE014402B101B20145028D028E020B
:104864008F0290029102B7017B030300FD03FE0354
:10487400FF03AC0304008603880389038A03B1039E
:104884001103C2030200A303A303C4030803CC035C
:1048940003008C038E038F03D8031801F2030A006C
:1048A400F903F303F403F503F603F703F703F9033A
:1048B400FA03FA03300420035004100760042201B1
:1048C4008A043601C1040E01CF040100C004D004DF
:1048D4004401610526040000C700FC00E900E20071
:1048E400E400E000E500E700EA00EB00E800EF0088
:1048F400EE00EC00C400C500C900E600C600F400E8
:10490400F600F200FB00F900FF00D600DC00F8001E
:10491400A300D800D7009201E100ED00F300FA00F3
:10492400F100D100AA00BA00BF00AE00AC00BD0087
:10493400BC00A100AB00BB00912592259325022564
:104944002425C100C200C000A900632551255725B4
:104954005D25A200A5001025142534252C251C2531
:1049640000253C25E300C3005A2554256925662506
:10497400602550256C25A400F000D000CA00CB00AF
:10498400C8003101CD00CE00CF0018250C258825A4
:104994008425A600CC008025D300DF00D400D200FB
:1049A400F500D500B500FE00DE00DA00DB00D9001A
:1049B400FD00DD00AF00B400AD00B1001720BE0063
:1049C400B600A700F700B800B000A800B700B9000F
:0849D400B300B200A025A00011
:0849DC0028B8FF7F0100000074
:0449E400B90100080D
:0449E800950100082D
:1049EC000024F40001000000100000000100000091
:04000005080009C521
:00000001FF
